:1000000002007D80627525AA752203752300E4F540
:1000100020F521E5212400E5206480347C50028015
:10002000028002803FE525852283852382F0852298
:1000300083852382E0F524E524B52504800080042F
:10004000C29080200523E523700205220521E521C9
:1000500070020520E5212400E5206480347C5002F4
:10006000800280C1C29122809CE4F5D075812678FF
:10007000207A06F608DAFC1200030200000200698A
:00000001FF
